:020000040800F2
:100000008049002035030008431E0008411C0008F9
:10001000411E000803060008FF250008000000003C
:100020000000000000000000000000007502000851
:100030002F07000800000000D1020008A9220008D4
:100040004F0300084F0300084F0300084F03000848
:100050004F0300084F0300084F0300084F03000838
:100060004F0300084F0300084F0300084F03000828
:100070004F0300084F0300084F0300084F03000818
:100080004F0300084F0300084F0300080000000062
:100090000000000000000000000000004F03000806
:1000A0004F0300084F0300084F0300084F030008E8
:1000B000812300084F0300084F0300084F03000886
:1000C0004F0300084F0300084F0300084F030008C8
:1000D0004F0300084F0300084F0300080000000012
:1000E0004F0300084F0300084F0300080000000002
:1000F0000000000000000000000000004F030008A6
:10010000000000004F0300084F0300084F030008E1
:1001100000000000000000000000000000000000DF
:100120004F0300084F0300084F0300084F03000867
:100130004F03000800000000000000000000000065
:100140000000000000000000000000004F03000855
:100150004F0300084F0300084F0300084F03000837
:100160004F0300084F0300080000000000000000DB
:10017000000000000000000000000000000000007F
:10018000000000004F030008000000000000000015
:100190004F03000800F002F800F05CF80AA090E8B5
:1001A000000C82448344AAF10107DA4501D100F032
:1001B00051F8AFF2090EBAE80F0013F0010F18BFA3
:1001C000FB1A43F001031847483200006832000070
:1001D0000A444FF0000C10F8013B13F0070408BF6D
:1001E00010F8014B1D1108BF10F8015B641E05D00B
:1001F00010F8016B641E01F8016BF9D113F0080FC0
:100200001EBF10F8014BAD1C0C1B09D16D1E58BF51
:1002100001F801CBFAD505E014F8016B01F8016B88
:100220006D1EF9D59142D6D37047000000230024FB
:1002300000250026103A28BF78C1FBD8520728BFF6
:1002400030C148BF0B6070471FB503F093F81FBD66
:1002500010B510BD00F061F91146FFF7F5FF02F08F
:10026000C9FA00F07FF903B4FFF7F2FF03BC00F016
:1002700087F900002C4B19680868B0E8F04F80F34C
:100280000988BFF36F8F4FF0000080F3118870472B
:100290000000000008480068006880F308884FF0FC
:1002A000000080F3148862B661B6BFF34F8FBFF3CE
:1002B0006F8F00DF00BF00BF08ED00E0DFF80C002B
:1002C000016841F470010160704700BF88ED00E0F3
:1002D000EFF30980BFF36F8F134B1A681EF0100FF6
:1002E00008BF20ED108A20E9F04F106009B44FF0EC
:1002F000500080F31188BFF34F8FBFF36F8F02F070
:1003000071FE4FF0000080F3118809BC196808687D
:10031000B0E8F04F1EF0100F08BFB0EC108A80F369
:100320000988BFF36F8F704728010020EFF3058025
:10033000704700000948804709480047FEE7FEE78C
:10034000FEE7FEE7FEE7FEE7FEE7FEE7FEE7FEE785
:1003500004480549054A064B704700007123000810
:10036000950100088043002080490020804500203E
:100370008045002053EA020C00F069802DE9F04B23
:100380004FF00006002B1FBFB3FA83F503FA05F404
:1003900024FA05F65E4012BF1643B2FA82F502FA5D
:1003A00005F4C5F120051EBF22FA05FC44EA0C0441
:1003B000203556EA044C4FEA144418BF641C4FF031
:1003C00000084FF00009904271EB030C39D300296B
:1003D00019BFB1FA81F701FA07F6B0FA80F700FA0F
:1003E00007F6C7F120071EBF20FA07FC46EA0C06F5
:1003F0002037B6FBF4FCA7EB0507103F07F01F0BF7
:10040000CBF120060CFA0BFB2CFA06F644BFB346E0
:100410000026202FA4BF5E464FF0000B5BEA060CBF
:1004200008BF4FF0010B19EB0B09ABFB027C48EB4B
:100430000608C01B06FB02CC0BFB03CC71EB0C01C6
:10044000C1E70B46024641464846BDE8F08B13B56E
:100450004FF000004FF00001AFF30080BDE81C40FA
:10046000704710B5203AC0F00B80B1E81850203A20
:10047000A0E81850B1E81850A0E81850BFF4F5AF44
:100480005FEA027C24BFB1E81850A0E8185044BFCE
:1004900018C918C0BDE810405FEA827C24BF51F83B
:1004A000043B40F8043B08BF7047D20728BF31F82F
:1004B000023B48BF11F8012B28BF20F8023B48BF80
:1004C00000F8012B70474FF0000200B51346944628
:1004D0009646203922BFA0E80C50A0E80C50B1F19C
:1004E0002001BFF4F7AF090728BFA0E80C5048BFB0
:1004F0000CC05DF804EB890028BF40F8042B08BF4E
:10050000704748BF20F8022B11F0804F18BF00F849
:10051000012B7047704770477047754600F02CF804
:10052000AE4605006946534620F00700854618B0E0
:1005300020B5FFF70DFFBDE820404FF000064FF05B
:1005400000074FF000084FF0000B21F00701AC4608
:10055000ACE8C009ACE8C009ACE8C009ACE8C00927
:100560008D46704710B50446AFF300802046BDE8C5
:100570001040FFF778BE0000004870471C43002081
:1005800001491820ABBEFEE72600020070470000BC
:100590000148406A80680047BC00002038B5074C1D
:1005A000054800256062016819B16846884700283F
:1005B00001D00120656238BDE4000020BC000020AD
:1005C0000148006AC0680047BC0000200148006A7A
:1005D00080680047BC00002038B5084C064800255C
:1005E00020628DF80050016819B1684688470028DC
:1005F00001D00120256238BDFC000020BC00002095
:100600007047FEE770B54178144A81EA510181EAEA
:10061000910181EA11146FEA1113E4438D0804F08B
:100620000104D471C94303F0010301F00106137200
:10063000E9436401567201F0010144EA0313917227
:1006400043EAC60343EA8101D172007800F03C001E
:10065000884201D0012070BD002070BDBC00002088
:100660007047FFF7CFBF00F001B8000038B50A4C63
:1006700000228021204600F04DF9A015074A009085
:100680000123911E064800F0EFFF01228021204641
:1006900000F040F9014838BD00080240DA000020AF
:1006A0008C05002000F028B800F02BB80B4800B5EE
:1006B000026887B0002142F002020260006800F088
:1006C00002000590402000900120CDE90101039136
:1006D0006946034800F02EF807B000BD30380240EC
:1006E0000004024010B500F01BF808B1012010BD55
:1006F000FFF7DCFF002010BD007840F38010401CA5
:100700007047007840F3C010401C704710B5FFF7E9
:100710003FFF024948618862401C10BD0000002074
:1007200010B501F0FBFB002800D0012010BD704780
:1007300072B6FEE72DE9F84FDFF8B8A100220124D8
:1007400003254FF00F090AF1040BAAF1040E00BFB4
:100750000B6804FA02F63340B34273D10F7907F005
:100760000307012F01D0022F16D187684FEA4208F4
:1007700005FA08FC27EA0C07D1F80CC00CFA08FCB3
:100780004CEA070CC0F808C04768B7430E79C6F3B7
:10079000001696403E4346600E79F643B6070DD0EC
:1007A000C768560005FA06FC27EA0C07D1F808C00E
:1007B0000CFA06FC4CEA070CC0F80CC00E7906F0E7
:1007C0000306022E10D1D60800EB8608D8F8206068
:1007D00057074FEAD76C09FA0CF7BE430F6907FABF
:1007E0000CF73743C8F8207006684FEA420C05FA48
:1007F0000CF7BE430F7907F0030707FA0CF73743EE
:1008000007604E6816F4403F6DD03B4E376847F4A2
:1008100080473760366822F0030706F4804600966A
:10082000364E07EB060CDCF8086897073F0F09FA0D
:1008300007F826EA0806DFF8C880404503D14FF0E4
:1008400000081EE04FE0DFF8BC80404502D14FF0C9
:10085000010816E0DFF8B080404502D14FF00208F1
:100860000FE0DFF8A880404502D14FF0030808E010
:10087000DFF89C80404502D14FF0040801E04FF0C2
:10088000070808FA07F848EA0608CCF80888DAF8F2
:1008900000605746D1F804C09E435FEACC2C00D5D7
:1008A0001E433E60DBF800605F46D1F804C09E4303
:1008B0005FEA8C2C00D51E433E60DEF80060774670
:1008C000D1F804C09E435FEA8C3C00D51E433E60D5
:1008D000084F083F3E68D1F804C09E435FEACC3C15
:1008E00000D51E433E60521C102AFFF431AFBDE814
:1008F000F88F0000083C01404438024000300140BD
:10090000000002400004024000080240000C0240C7
:10091000001002400AB1816170470904FBE7000042
:100920000148806870470000AC00002002488168E0
:100930000278114481607047AC0000200B4810B56C
:10094000016841F400710160016841F48061016057
:10095000016841F480710160032000F09FF80F20CE
:1009600000F006F800F050F8002010BD003C0240F6
:1009700030B50546204887B00024016841F00101E8
:100980000160006806A900F00100009001A800F0D5
:10099000D9F90498B0B100F0F5F9400017494FF0CB
:1009A0008042B0FBF1F11648491E026040F2E73286
:1009B000C0E90324C0E90114846100F04EFF040083
:1009C00003D015E000F0DEF9E8E70D4800F074FF11
:1009D00004000DD11C2000F033F8102D07D20022A6
:1009E00029461C2000F03AF80648056000E0012482
:1009F00007B0204630BD00004038024040420F00A2
:100A000044050020B00000200C4882B0016841F489
:100A100080410160006800F4804000900748001F9A
:100A2000016841F0805101600068002200F08050B0
:100A300000900F21901E02B000F010B84438024020
:100A4000002809DB00F01F020121914040098000CD
:100A500000F1E020C0F8001170470000F0B40E4B28
:100A60001B680C46C3F30223C3F10705042D00D90C
:100A70000425191D072901D2002300E0DB1E0126F1
:100A800006FA05F1491E214099409E40761E164007
:100A90003143F0BC01F09EBE0CED00E0064900F0D1
:100AA000070208684FF6FF03184040EA0220034A95
:100AB00010430860704700000CED00E00000FA05EC
:100AC0002DE9F843044600684FF00109C1074FF0D3
:100AD000000601D1400727D5DFF81C81C8F86860FF
:100AE000FFF71EFF0746454D05E000BFFFF718FF63
:100AF000C01B022857D828680001F7D4606881011C
:100B0000207A41EA00703D4984310860C8F8689055
:100B1000FFF706FF074604E0FFF702FFC01B0228AD
:100B200041D828680001F7D52078800752D533488E
:100B30004030016841F0805101600068304D00F0A4
:100B400080500090286840F480702860FFF7E8FE2D
:100B5000074604E0FFF7E4FEC01B022823D82868FC
:100B6000C005F7D5254D7035286810F4407020D0A9
:100B7000A18901F4407181421BD0286820F44071A2
:100B80002048C0F80090066029602868C00710D08F
:100B9000FFF7C6FE064641F2883707E0FFF7C0FEC2
:100BA000801BB84202D90320BDE8F883286880077B
:100BB000F4D5E1681148C1F301220830032A12D0AC
:100BC000016821F4F81101602868A189C1F30B01C3
:100BD000084328602078000703D50B49207CC1F822
:100BE000E0010020E0E70268084B22F4F812194007
:100BF0000A430260E8E70000000047420038024074
:100C000000700040400E474200104742FFFCFF0FBB
:100C10002DE9F0470E46050065D0DFF81481D8F8BD
:100C20000000F7B200F00700B04207D288F8007069
:100C3000D8F8000000F00700B04254D128683D4CBD
:100C4000810712D5400703D5206840F4E0502060AA
:100C50002878000703D5206840F4604020602068B1
:100C6000A96820F0F000084320602878C0072DD044
:100C7000304968680839012812D0022813D00328A7
:100C800011D00968890700292DDA216821F00301B4
:100C900001432160FFF744FE814641F2883A0EE0AD
:100CA00009688903EFE709688901ECE7FFF738FE77
:100CB000A0EB0901514502D90320BDE8F087206867
:100CC000696800F00C00B0EB810FEFD1D8F800108C
:100CD000404601F00701B14207D90770006800F0F3
:100CE0000700B04201D00120E7E72878400705D58A
:100CF0002068E96820F4E050084320602878000765
:100D000006D52068296920F4604040EAC1002060CF
:100D100000F058F82168084AC1F30311515CC8403B
:100D20000649086006480068FFF722FE0020C4E775
:100D3000003C024008380240D4330008B8000020CC
:100D4000B00000200F2202600C4A136803F0030376
:100D50004360136803F0F0038360136803F4E05307
:100D6000C36012684FF4E05303EAD2020261044800
:100D7000006800F007000860704700000838024073
:100D8000003C02400448054900680968044AC1F370
:100D90008221515CC8407047B800002008380240EA
:100DA000E43300080448054900680968044AC1F3AF
:100DB0004231515CC8407047B800002008380240FA
:100DC000E4330008154810B5006810F00C02144810
:100DD00013D04110042A0FD0082A0ED10F4C241F23
:100DE0002268236802F03F025B0207D52068C0F347
:100DF0008810A0FB010106E0084610BD2168C1F380
:100E00008811A1FB00010023FFF7B4FA2168C1F3A8
:100E10000141491C4900B0FBF1F010BD0838024007
:100E20000024F4002DE9F84F04006ED02078DFF89C
:100E30004C93C007A9F104054AD009F104000168E8
:100E4000C1F38101012908D00068C0F381000228A4
:100E50000AD1D9F80000400206D52868800337D5AA
:100E600060680028E1D033E06068B0F5803F10D0C2
:100E7000B0F5A02F286810D020F4803028602868B2
:100E800020F4802028606068A8B1FFF749FD06467D
:100E90000DE0286840F48030F4E740F480202860BA
:100EA000F7E700BFFFF73CFD801B642873D8286874
:100EB0008003F7D50CE0FFF733FD064605E000BFE1
:100EC000FFF72EFD801B6428F0D828688003F7D434
:100ED0002078DFF8AC8280074FF0000A3ED5A748A3
:100EE000001D016811F00C0F08D00068C0F38100EC
:100EF00002280BD1D9F80000400207D428688007E7
:100F000016D5E068012800D112E033E1E068B8B1FD
:100F10000120C8F80000FFF703FD064605E000BF0A
:100F2000FFF7FEFC801B0228C0D828688007F7D591
:100F30002868216920F0F80040EAC10028600DE02F
:100F4000C8F800A0FFF7ECFC064604E0FFF7E8FC59
:100F5000801B02281FD828688007F7D42078000754
:100F600022D5864F87486169703771B101210160D0
:100F7000FFF7D6FC064604E0FFF7D2FC801B0228F0
:100F800009D838688007F7D50EE0C0F800A0FFF751
:100F9000C7FC064605E082E0FFF7C2FC801B022882
:100FA0007DD838688007F7D42078400768D5DFF807
:100FB000CCB100270BF13C0BDBF80000C0000BD4D8
:100FC000DBF8001041F08051CBF80010DBF8000096
:100FD000012700F0805000906B4E3068C00510D49F
:100FE000306840F480703060FFF79AFC009005E0B4
:100FF000FFF796FC0099401A022850D83068C005C7
:10100000F6D55E4EA0686C3601280FD005283068F2
:1010100010D020F001003060306820F00400306013
:10102000A068B8B1FFF77CFC00900FE0306840F09A
:101030000100F4E740F004003060F7E7FFF770FCD0
:101040000099411A41F28830814266D830688007A1
:10105000F4D50EE0FFF764FC009007E0FFF760FCBA
:101060000099411A41F28830814256D83068800791
:10107000F4D42FB1DBF8001021F08051CBF8001030
:10108000A069C8B33D49091D0968C1F3810102295E
:101090004AD00228504607D0C8F8600000E03CE083
:1010A000FFF73EFC04463BE04746C8F86000FFF708
:1010B00037FC064605E000BFFFF732FC801B022824
:1010C0002BD828688001F7D4D4E907010843A16A26
:1010D0002E4A490802EB0141626A41EA8211084343
:1010E00094F82C1040EA0161C9F80010012038661C
:1010F000FFF716FC044606E03EE000BFFFF710FCD9
:10110000001B022809D828688001F7D534E000BF09
:10111000FFF706FC001B022802D90320BDE8F88F68
:1011200028688001F4D427E00128F7D0D9F800001E
:10113000E26900F4800191421CD1226A00F03F0173
:10114000914217D147F6C071626A0140B1EB821F2C
:1011500010D1A26A4FF0FF3300F4403103EB52028A
:10116000B1EB024F06D194F82C1000F07060B0EB98
:10117000016F01D00120D1E70020CFE70438024001
:1011800000004742800E4742007000400000FFFF11
:101190002DE9F74F0446007F934601281BD04FF0FE
:1011A000010884F81C80022060772168CA20486208
:1011B000206853214162206880684FF00005400597
:1011C0004FF0FF064FF0030A4FF47A790FD5FFF77F
:1011D000A7FB074607E00220BDE8FE8FFFF7A0FB54
:1011E000C01B484519D82068C0684007F6D420685D
:1011F000816821F4806181602068C16801F080010C
:1012000061F49061C160FFF78BFB07460CE000BF03
:10121000FFF786FBC01B484506D92068466284F864
:101220001DA025770320D7E72068C0684007EFD5C9
:101230002068816821F0070181602068816841EAA7
:101240000B0181602168019848612068816841F440
:10125000806181602068466284F81D8025770020C7
:10126000BAE7000010B5040002D0607F10B106E0BC
:10127000012010BD00202077204600F041F8022018
:1012800060772068C168C943C90632D5CA21416266
:10129000216853204862204600F006FE20BB2068EB
:1012A0008168164A1140816021688868626810432D
:1012B000D4E904231A43104388602168E068086178
:1012C00020680169228941EA02410161204600F05B
:1012D0000FFE48B921680A6C22F480220A64216852
:1012E0000A6CA3691A430A642268FF21516208B19B
:1012F00010BD00200121617710BD0000BFFF8FFFEE
:1013000010B586B0044614216846FFF7DCF8094999
:10131000206888420CD102200090000203906846A9
:10132000FFF7CEFB08B1FFF703FA0349012008607D
:1013300006B010BD002800403C0E474270B5044680
:10134000007F0B46012819D00126267702206077FE
:10135000B2B19878D97840EA0145587819780002F6
:1013600040EA413005432168CA2048622168532081
:101370004862204600F098FDD0B122E0022070BD06
:101380005878C10603D500F0EF000A305870D878BD
:1013900000F07FFD0204587800F07BFD42EA002255
:1013A000987800F076FD0243187842EA4035DAE793
:1013B0000748054020684560204600F099FD00B9C7
:1013C00066772268FF2151620021217770BD0000FD
:1013D0003FFFFF002DE9F0410446007F0D46012844
:1013E00023D04FF0010884F81C8002206077206829
:1013F000002780684FEA4060D2B1002800DBEF7020
:10140000A878297840EA01466878E978000240EA3D
:10141000815006432168CA204862216853204862EF
:10142000204600F041FDB8B12CE00220BDE8F0817B
:10143000002800DBEF70287800F02BFD02046878AC
:1014400000F027FD42EA0022A87800F022FD0243C6
:10145000E87842EA8056DDE70D48064020680660DD
:101460002068816821F480218160D5E90301084367
:1014700021688A6810438860204600F039FD08B969
:1014800084F81D802268FF2151622777CEE7000093
:101490007F7F7F0070B504460B482168C860FFF766
:1014A0003FFA05464FF47A7607E000BFFFF738FAB7
:1014B000401BB04201D9032070BD2068C06880067F
:1014C000F4D5002070BD00005F3F010090F851008E
:1014D000704770B5040009D0606A002540B12561ED
:1014E0006561A56294F8510040B10CE0012070BD27
:1014F0006068B0F5827FF4D0E561F2E784F850507F
:10150000204600F045F8022084F851002068016868
:1015100021F040010160A088218900F4827001F46B
:1015200004410843A18901F400610843217C01F0D2
:1015300002010843217D01F001010843218B01F4E0
:1015400000710843217F01F03801084394F820100E
:1015500001F080010843218D01F400510843216806
:101560000860A069042101EA104094F8241001F0F9
:1015700010010843216848602068C16921F40061B6
:10158000C1616565012084F85100002070BD000034
:10159000F0B587B0044614216846FEF794FF2C4A44
:1015A000216800242B480225032691421BD129499A
:1015B00014310A6842F480520A60096801F48051CB
:1015C0000591016841F0010101600068029400F09A
:1015D00001000590E020CDE900050520CDE903607C
:1015E00069461D4830E01D4A91422FD119491031FA
:1015F0000A6842F400420A60096801F4004105915A
:10160000016841F004010160016801F004010591E5
:10161000016841F002010160006802AA00F00200C6
:1016200005904FF4C050CDE90005062782E8D000B0
:1016300069460B48FFF77EF80820CDE9000502AAAD
:10164000694682E8D0000748FFF774F807B0F0BD9C
:10165000003001403038024000000240003C0040B1
:1016600000080240000402402DE9FF4F81B004460B
:1016700090F8500000260E9F1D4693464FF001093A
:1016800001280FD04FF0010A84F850A0FFF748F965
:10169000804694F85100616801280DD0B1F5827F31
:1016A00008D103E0022005B0BDE8F08FA16809B9B8
:1016B000042801D00226C9E00298002865D0BBF1B9
:1016C000000FFBD0002DF9D094F85100042802D06F
:1016D000052084F8510000206065C4F838B0E58723
:1016E000A58702992163E586A58620646064206849
:1016F0000168490603D4016841F040010160E068D7
:10170000B0F5006F606803D0F0B3012D47D081E0E1
:1017100008B1012D3CD1206B21680088C860206B86
:10172000801C2063E08E401EE08631E020688168E6
:1017300089070FD5E18E69B1B9F1010F0AD1216B8B
:101740000988C160206B801C2063E08E401EE0860B
:101750004FF0000920688168C9070CD0E18F51B1B2
:10176000C068A16B0880A06B801CA063E08F401E46
:10177000E0874FF00109FFF7D3F8A0EB0800B8426B
:1017800006D3781C04D001E009E05BE003265BE0AF
:10179000E08E0028CAD1E08F0028C7D140E0206B3E
:1017A000216800780873206B401C2063E08E401E87
:1017B000E0862FE02068816889070FD5E18E69B146
:1017C000B9F1010F0AD1216B09780173206B401C1C
:1017D0002063E08E401EE0864FF00009206881689B
:1017E000C9070CD0E18F51B1C068A16B0870A06B24
:1017F000401CA063E08F401EE0874FF00109FFF717
:101800008FF8A0EB0800B84202D3781C02D0BAE7E8
:10181000002FB8D0E08E0028CCD1E08F0028C9D1AD
:1018200042463946204600F0E9FB18B10126202047
:1018300060650BE0A06818B92068C16880680090F6
:10184000606D08B1012601E084F851A0002084F801
:101850005000304627E77047704710B5040003D0AA
:1018600094F83D0010B107E0012010BD002084F87D
:101870003C00204600F01EF8022084F83D00211DA7
:10188000206800F083FD012084F8460084F83E00C3
:1018900084F83F0084F8400084F8410084F8420056
:1018A00084F8430084F8440084F8450084F83D003F
:1018B000002010BD7047000090F83D10012901D0B4
:1018C00001207047022180F83D100168CA6842F08B
:1018D0000102CA6000680E4988420ED0B0F1804F04
:1018E0000BD00C49884208D00B49884205D00B49DF
:1018F000884202D00A49884204D1816801F0070178
:10190000062903D0016841F0010101600020704701
:10191000000001400004004000080040000C0040AE
:101920000040014070472DE9F04104460068C66858
:1019300005694FF00007A90713D5B10711D5F91EA6
:10194000016101202077206880698007204602D04D
:10195000FFF7E8FF04E000F07EF8204600F07CF896
:101960002777680716D5700714D521686FF0040033
:101970000861022020772068806910F4407F2046AB
:1019800002D0FFF7CFFF04E000F065F8204600F03A
:1019900063F82777280715D5300713D521686FF02E
:1019A00008000861042020772068C069800720466D
:1019B00002D0FFF7B7FF04E000F04DF8204600F03A
:1019C0004BF82777E80616D5F00614D521686FF096
:1019D00010000861082020772068C06910F4407F5B
:1019E000204602D0FFF79EFF04E000F034F82046C6
:1019F00000F032F82777E80708D0F00706D0216812
:101A00006FF001000861204600F027F8280608D58D
:101A1000300606D521686FF0800008612046FFF788
:101A20001AFF680608D5700606D521686FF04000D9
:101A30000861204600F018F8A8060AD5B00608D5B7
:101A400021686FF0200008612046BDE8F041FFF7F3
:101A500003BFBDE8F081704770470068B0F1804F68
:101A600001D1FEF763BF7047704770B5040004D022
:101A700094F84100002510B106E0012070BD84F803
:101A80004050204600F024F8242084F841002068CB
:101A9000C16821F40051C160204600F0F1FC2068CB
:101AA000016921F4904101612068416921F02A0116
:101AB00041612068C16841F40051C1606564202023
:101AC00084F8410084F842006563002070BD000086
:101AD000F0B587B0044614216846FEF7F4FC2B4BA2
:101AE000226800242A49022507262A489A422CD136
:101AF000274A1432136843F010031360126802F08F
:101B0000100205920A6842F001020A600A6802F0B7
:101B1000010205920A6842F002020A60096803277E
:101B200001F0020105914115CDE90015CDE902470B
:101B300004966946FEF7FEFD8020CDE90005CDE95B
:101B400002476946049614481BE0144B9A421AD186
:101B50000F4A1032136843F400331360126802F422
:101B6000003205920A6842F001020A60096801F039
:101B7000010105910C210091CDE90154CDE9034605
:101B80006946FEF7D7FD07B0F0BD00000010014028
:101B9000303802400000024000040240004400408F
:101BA0002DE9F843044690F84100984616460D4644
:101BB000202802D00220BDE8F88385B17EB1002044
:101BC0006064212084F84100FEF7AAFEA6848146C5
:101BD000E684A0682027B0F5805F02D003E00120F2
:101BE000E9E7206910B12E4600250EE000260CE042
:101BF0008021204600F0CAFCA8B9C6B116F8010B36
:101C000021684860E08C401EE084E08C4B464FF039
:101C10000002CDF800800028EAD14FF040012046B4
:101C200000F0B4FC40B184F841700320C3E735F8FC
:101C3000020BC0F30800E3E784F841700020BAE724
:101C4000FEE700002DE9F04387B014216846FEF757
:101C50003AFC35480024016841F004010160016844
:101C600001F004010591016841F080010160016803
:101C700001F080010591016841F0010101600168F6
:101C800001F001010591016841F002010160006865
:101C9000264F00F002000590002282213846FEF710
:101CA00039FEDFF88C8040F2034600223146404680
:101CB000FEF730FEDFF87C9000224FF48661484644
:101CC000FEF728FE4FF4005000904FF40410CDE9C9
:101CD000010469463846FEF72DFD8220009001255B
:101CE000CDE90154694638460394FEF723FD00967A
:101CF000CDE90154694640460394FEF71BFDA80256
:101D0000CDE90005CDE9025469464846FEF712FDCB
:101D100030200090CDE90154694648460394FEF70F
:101D200009FD07B0BDE8F0833038024000080240EA
:101D3000000002400004024010B586B0142168463D
:101D4000FEF7C1FB1F4800241D490594C0E900149B
:101D50007F218160FF21C0E9031444618461FFF7A2
:101D600081FA08B172B6FEE78DF800408DF80140A7
:101D70008DF8024003940122694612480494FFF74B
:101D800029FB08B172B6FEE701208DF814008DF82A
:101D900015008DF8160002468DF8174005A9094870
:101DA000FFF7CCFA08B172B6FEE7002211460548EB
:101DB000FFF7EEF9002801D072B6FEE706B010BDBD
:101DC00000280040900100200D4810B50B4901602B
:101DD000002141608160C1604FF400720161C0E97F
:101DE00005120162416281620A21C162FFF771FB43
:101DF000002801D072B6FEE710BD0000003001409F
:101E0000B00100200D4810B50B4901600021416070
:101E10008160C1604FF400720161C0E90512016286
:101E2000416281620A21C162FFF753FB002801D0A1
:101E300072B6FEE710BD0000003C00400802002022
:101E4000FEE7FEE710B504460078FEF7D9FB0C4923
:101E5000002248702078012805D0032803D00A61A9
:101E60008A60CA6010BD012008612378012B01D16E
:101E7000C1E902022378032BF4D1C1E9022010BD8D
:101E80000000002010B500F049F8002800D0012023
:101E900010BD002102E00A38C0B2491C0A28FAD25B
:101EA000090740EA116070472DE9F04104460068D7
:101EB0000025C168490618D4C16841F08001C1609D
:101EC000FEF72EFD06464FF47A78042707E000BFA0
:101ED000FEF726FD801B404501D967770125206864
:101EE000C068400601D4002DF2D02846BDE8F0813C
:101EF00070B5044600680025C16821F08001C1600A
:101F000020688068800606D42046FFF7C3FA10B127
:101F1000042060770125284670BD000010B51548E3
:101F2000FFF7D4FAE0B9134813494FF40062016097
:101F30004FF4827141600021C0E9021292100161E8
:101F4000C0E905121822C0E90721416281620A2115
:101F5000C16200F013F80748FFF7BBFA002805D16B
:101F60000448FFF7B3FA012801D0012010BD00207A
:101F700010BD00008C050020003001401C4810B549
:101F8000026886B0002142F001020260026802F09D
:101F900001020592026842F002020260006800F04D
:101FA0000200059012481430026842F48052026028
:101FB0000068104C00F480500590402000900220F2
:101FC000CDE901010520CDE9031069462046FEF761
:101FD000B1FB8020009069462046FEF7ABFB08204D
:101FE000009069460448FEF7A5FB06B010BD00004E
:101FF000303802400000024000040240F8B51546A7
:102000000E460B46009204460122022100F02CF8F5
:10201000A0B9134813490068B0FBF1F04FF47A718E
:10202000484300906068B0F5827F0DD133460022AE
:1020300080212046009500F017F870B1606D40F0E7
:10204000200060650320F8BD009830B1401E00906C
:1020500020688068C0430006F6D50020F8BD000067
:10206000B800002000366E012DE9F8431E46914667
:1020700088460446089DFEF753FC401B351AFEF7C0
:102080004FFC074625480068C0F3CB30684338E072
:10209000701C37D0FEF744FCC01BA84203D215B118
:1020A000009860B32CE02068416821F0E0014160B5
:1020B0006068B0F5827F0BD1A068B0F5004F02D008
:1020C000B0F5806F04D12068016821F04001016003
:1020D000A06AB0F5005F09D12068016821F40051C1
:1020E00001602068016841F400510160012084F81A
:1020F0005100002084F850000320BDE8F88300253B
:10210000401E00902068816838EA010004D0002158
:102110004945BDD10020F0E70121F9E7B8000020D2
:10212000054C00BFFEF7F2FA6062FFF78BFE6420F9
:1021300000F0CCFBF6E7000000000020DFF80C9177
:10214000434E09F1200A09F1400BA9F12C044FF488
:102150008068404D404F57E0012202213046FEF793
:10216000D9FB012241462846FEF7D4FB60680828C7
:1021700001DB00206060A068C0B16168384619F8D2
:1021800021201021FEF7C6FB616828461AF821209D
:102190000121FEF7BFFB616838461BF82120202192
:1021A000FEF7B8FB29486168603021E0E06858B369
:1021B0006068C0F10701384619F821201021FEF7A8
:1021C000A9FB6068C0F1070128461AF82120012107
:1021D000FEF7A0FB6068C0F1070138461BF821201C
:1021E0002021FEF797FB6068C0F1070117486030B7
:1021F00010F8212002212846FEF78CFB6068401C65
:102200006060322000F062FB20690028A4D1002227
:1022100002213046FEF77EFB002241462846FEF7AB
:1022200079FB002210213846FEF774FB00220121C1
:102230002846FEF76FFB002220213846FEF76AFB96
:10224000002202212846FEF765FBDDE72C00002076
:102250000008024000000240000402400D4C4FF410
:10226000FA75206988B1A06818B1642301220AA117
:1022700004E0E06828B16423012208A10848FFF7C0
:102280008FFC284600F022FBEBE76423012205A126
:10229000F4E70000000000204D000000570000009F
:1022A000600200204400000010B5502080F3118827
:1022B000BFF34F8FBFF36F8F00F094FF18B1044945
:1022C0004FF080500860002080F3118810BD00009E
:1022D00004ED00E030B593B030216846FEF7F3F826
:1022E00014210CA8FEF7EFF81F480024016841F004
:1022F00080510160006800F0805011901B48016817
:1023000021F4404141F4004101600068102100F4D3
:10231000404011900A2000900120CDE903010225E0
:102320000794CDE905054FF4A870CDE90810042005
:102330000A9007200B906846FEF774FD08B172B64C
:10234000FEE70F20CDE90C054FF48050CDE90E409B
:1023500002210CA81094FEF75BFC002801D072B695
:10236000FEE713B030BD000040380240007000406E
:102370000248016841F470010160704788ED00E097
:102380000148FFF7D0BA000044050020F0B502680C
:10239000204B214C9F03214D214E984207D0B8423B
:1023A00005D0A04203D0A84201D0B04204D122F00F
:1023B000700C4A6842EA0C02984210D0B8420ED023
:1023C000A0420CD0A8420AD0B04208D0154CA0427E
:1023D00005D0154CA04202D0144CA04203D122F4E7
:1023E0004074CA6822434C6922F080022243026092
:1023F0008A68C2620A688262984201D109690163EF
:10240000012141610169C90703D0016921F001017E
:102410000161F0BD000001400004004000080040E0
:10242000000C0040004001400044014000480140D1
:1024300001680C3151E8002F22F4907241E800232A
:10244000002BF5D10168143151E8002F22F0010270
:1024500041E80023002BF5D1016B012909D1016866
:102460000C3151E8002F22F0100241E80023002B2C
:10247000F5D1202180F8421000210163704700004F
:1024800070B5044600680169E26821F440511143C7
:1024900001612169A068E269084361691143084349
:1024A0002168CA6849F20C639A430243CA602068F3
:1024B0004169A26921F440711143416131492068A9
:1024C000884202D03049884202D1FEF76BFC01E01D
:1024D000FEF758FCE2690023192164253226B2F583
:1024E000004F626828D0A0FB0101930F9200FDF716
:1024F00041FF0146B0FBF5F06FF01802504301EBCD
:10250000800006EB0010B0FBF5F000F0F002B1FB2C
:10251000F5F002EB0012B1FBF5F06FF01803584331
:1025200001EB800006EB0010B0FBF5F000F00F00AF
:1025300021681044886070BDA0FB010192185B41C6
:10254000FDF718FF0146B0FBF5F00201B1FBF5F015
:102550006FF01803584301EB800006EBC000B0FB9E
:10256000F5F000F0F80002EB4002B1FBF5F0584343
:1025700001EB800006EBC000B0FBF5F000F00700B7
:10258000D6E7000000100140001401402DE9F84397
:10259000984617460D460446089E24E0701C22D03B
:1025A000FEF7BEF9A0EB0800B0421AD8CEB1206801
:1025B000C168490717D5802D15D0402D13D001686B
:1025C000C94309070FD401680025406800902046E0
:1025D000FFF72EFF0820606484F840500120BDE81A
:1025E000F8830320FBE72068006835EA000004D088
:1025F0000020B842D2D00020F1E70120F9E7FEE741
:1026000030B50378407803EB002121F00F0282EA15
:102610005201144881EA910181EA1111028382EA90
:10262000920282EA121282EA122202F0010401F4FA
:102630008071090A02F00202018255088482012297
:102640008A43E40044EA8504458244EA4101C282A7
:102650001143418303F00F00814201D0012030BDBE
:10266000002030BDBC00002000F04EB801229102D5
:102670000148FEF74FB9000000040240FFF7F6BF23
:102680004078002800D001207047007840F3C01047
:10269000401C7047FFF7F4BFFFF7B2BFFFF7F5BF6D
:1026A00000F03FB800F041B800F090B8134800B512
:1026B000026887B0002142F004020260026802F062
:1026C00004020592026842F002020260006800F013
:1026D00002000590802000900120CDE901010391C6
:1026E00069460748FEF726F84FF480600090694677
:1026F0000448FEF71FF807B000BD00003038024064
:1027000000080240000402407047FFF7BBBB10B551
:10271000FFF7FBFF08B1012010BDFFF7C7FF002046
:1027200010BD0078C0F3401070470078C0F300106F
:10273000704700F001B80000012280210148FEF737
:10274000E9B800000008024038B580EA900380EA4A
:10275000500283EA131382EA920203F0010417493C
:1027600082EA121202F0010203F002038A705D088D
:102770000C7101239343E40044EA8504CD7044EADC
:1027800042024B711A438A710C310D4C0A70487029
:10279000002240212046FEF7BDF8084AA0150E325F
:1027A00000900123911E0748FEF75EFF01224021A1
:1027B0002046FEF7AFF801480E3038BDBC000020BF
:1027C000000402408C050020FFF7BEBF0078C0F374
:1027D000801070470907090E002804DB00F1E02093
:1027E00080F80014704700F00F0000F1E02080F83E
:1027F000141D704796B0FEF7A1F8FFF76BFDFFF7C9
:1028000021FAFFF7E1FA2A4828494FF4E13500247C
:102810000160C0E901540C26C460C0E9044684612B
:10282000C461FFF722F908B172B6FEE7FFF784FA38
:10283000FFF7E8FA1E481F4948380160C0E9015413
:10284000C460C0E904468461C461FFF70EF908B1B1
:1028500072B6FEE7FDF7C0FEFDF7A0FEFDF7B6FE7F
:10286000FDF7AEFE1C2214496846FDF7FAFD002173
:10287000684600F037F8114C0F491C22A0611C314A
:1028800007A8FDF7EEFD002107A800F02BF80A4984
:10289000E0611C2238310EA8FDF7E3FD00210EA8EF
:1028A00000F020F8206200F018F8FEE70044004035
:1028B000A802002000100140803300080000002022
:1028C00001460020842900D0C81C704710B500B90B
:1028D000012000F023FB002010BD10B500F044FBE8
:1028E000002010BD7FB50D4604464169B0F90800CF
:1028F00081B1A16971B1FFF7E3FFD4E905128DE859
:102900000700D4E900102B46226900F040FC039038
:1029100004B070BDFFF7D4FF03A9CDE90001208A00
:102920002B4682B2D4E9001000F004FC012801D04B
:102930000020EDE70398EBE72DE9F041184C0F4636
:102940000546E6682068001D00F020FA38B92068C6
:1029500090F82C1001208840216981432161681C76
:1029600007D137B12168BDE8F0410E48091D00F0DC
:1029700051BA20683544B5424560216805D2A06B44
:10298000BDE8F041091D00F02DBA606B091D00F093
:1029900029FAA06A854200D2A562BDE8F081000054
:1029A00028010020080700202DE9F041054600F02D
:1029B0003DFA2E4CA068401CA06020682C4F10B13E
:1029C000606940B32DE02560A068012829D1002668
:1029D00006EB860007EB800000F0F6F9761C072E68
:1029E000F6D323488C3000F0EFF92148A03000F0F6
:1029F000EBF91F48B43000F0E7F91D48C83000F08B
:102A0000E3F91B48DC3000F0DFF919488C306063D3
:102A10001430A06305E02068E96AC06A884200D8E3
:102A20002560606A401C6062E96A01202269884072
:102A30001043206101EB810007EB8000291D00F0AD
:102A4000E9F900F013FA606900280CD02068E96AFF
:102A5000C06A884207D207494FF080500860BFF330
:102A60004F8FBFF36F8FBDE8F08100002801002079
:102A70002C06002004ED00E010B5044690F851004B
:102A800058B101280CD002280FD0502080F31188B3
:102A9000BFF34F8FBFF36F8FFEE7206B00F0FAF9A3
:102AA0002046BDE8104000F0F5B910BD10484FF4C5
:102AB0007051420706D0C01D0D4920F00700411A91
:102AC000C1F570510B4A00230144C2E900030839E3
:102AD000183A21F0070111604B600B600B1AC0E936
:102AE000001393604FF00040536050617047000046
:102AF0001C0700207C010020144E154CA6F1C807CD
:102B00004FF08058DFF84C9012E000BF00F08EF9D3
:102B1000F068C568281D00F039F9A068401EA06063
:102B20006068401E606000F0A1F92846FFF7A4FF2E
:102B300060680028EAD138680128F9D9C9F800800E
:102B4000BFF34F8FBFF36F8FF2E70000F406002052
:102B50002801002004ED00E02DE9F0479A46DDE968
:102B6000098481466FF00303206B03EB820210445B
:102B7000089E20F00707780707D0502080F31188BF
:102B8000BFF34F8FBFF36F8FFEE7002561B10020C9
:102B900023180A5C83F834200A5C12B1401C102808
:102BA000F6D384F8435001E084F83450072E00D364
:102BB0000626E662C4E91165201D00F010F904F153
:102BC000180000F00CF92461C6F107006462A061EE
:102BD000E56484F8505052464946384600F0C0F843
:102BE0002060B8F1000F01D0C8F80040BDE8F087C0
:102BF00030B5114900E011460A688242FBD34B68A8
:102C00005C18844203D14068184448600846436811
:102C10001C18944209D1084C183C2468A24209D0DF
:102C200052681A4442600A6812680260814200D009
:102C3000086030BD0460F9E77C0100200648416B64
:102C4000096829B1416BC968C968496881627047E0
:102C50004FF0FF31FAE700002801002008484068E3
:102C6000401C4FF0500080F3118804D0BFF34F8F09
:102C7000BFF36F8FFEE7BFF34F8FBFF36F8FFEE79A
:102C8000840100202DE9F0410546002700F0A2F95B
:102C9000324E306808B9FFF709FF706905424ED11E
:102CA000C5B3083568070ED005F00700C0F108006D
:102CB0000544680707D0502080F31188BFF34F8F79
:102CC000BFF36F8FFEE72DB37068854237D8234876
:102CD000183001460C6801E020460C466168A942A4
:102CE00002D221680029F7D131688C4227D00768C9
:102CF0002168016060680837411B10290FD96019ED
:102D0000420708D0502080F31188BFF34F8FBFF3E4
:102D10006F8FFEE713E041606560FFF769FF616850
:102D20007068401A7060B268904200D2B0607069FA
:102D300001430020C4E90001F068401CF06000F08D
:102D4000B7FA780707D0502080F31188BFF34F8F70
:102D5000BFF36F8FFEE73846BDE8F08164010020C5
:102D600010B5031F4FF080741C601B1F21F0010180
:102D70001960191F044B0B6014390A60091F6FF0AA
:102D8000020244380A6010BD5D2C0008D0E901320F
:102D900001699A60D0E901235A604A68824201D1F0
:102DA00082684A60002202610868401E0860086864
:102DB00070470000034B036003F15400086080205B
:102DC00010607047F002002000F108014FF0FF3260
:102DD000C0E90112C160016100210160704700215A
:102DE0000161704730B50B685A1C02D000F108022F
:102DF00002E0026904E02246546825689D42FAD93F
:102E000053684B6099608A60516008610168491C91
:102E1000016030BD42684A6093688B609368596076
:102E2000916008610168491C01607047502080F37F
:102E30001188BFF34F8FBFF36F8F0A494868401C5A
:102E4000486001280CD10848006810F0FF0F07D037
:102E5000502080F31188BFF34F8FBFF36F8FFEE7D1
:102E6000704700008401002004ED00E00849486834
:102E700028B1401E486001D180F31188704750206E
:102E800080F31188BFF34F8FBFF36F8FFEE7000011
:102E90008401002070B500282AD0164DA0F1080446
:102EA00060686969084207D1502080F31188BFF338
:102EB0004F8FBFF36F8FFEE722683AB1502080F347
:102EC0001188BFF34F8FBFF36F8FFEE788436060B9
:102ED00000F080F860686968084468602046FFF781
:102EE00087FE2869401C2861BDE8704000F0E0B909
:102EF00070BD0000640100204FF0E020002101615E
:102F0000816105494FF47A720968B1FBF2F1491EFB
:102F10004161072101617047B800002010B502002F
:102F200014D00F48006B38B1502080F31188BFF3E4
:102F30004F8FBFF36F8FFEE700F04CF80021104673
:102F4000FFF7FAFC00F0B4F9002807D105494FF06B
:102F500080500860BFF34F8FBFF36F8F10BD00002C
:102F60002801002004ED00E010B586B00024039491
:102F700005AA04A903A80494FFF71CFFDDE90301D7
:102F80000094CDE9011000230EA11048059A00F02D
:102F9000FEF80F490028C86211D0502080F3118834
:102FA000BFF34F8FBFF36F8F4FF0FF308862012068
:102FB0004861CC6006B0BDE8104000F041B806B0F2
:102FC00010BD000049444C4500000000F92A0008EB
:102FD000280100200248016B491C01637047000072
:102FE000280100201448016B11B10121C161704713
:102FF0000021C1610169B1FA81F1C1F11F0101EB49
:1030000081020E4951F822306BB101EB820101F1CE
:1030100008034A6852684A609A4201D152684A607D
:10302000D16801607047502080F31188BFF34F8F43
:10303000BFF36F8FFEE70000280100202C06002060
:103040001CB537480168374A914207D1502080F3B8
:103050001188BFF34F8FBFF36F8FFEE700683149D0
:10306000491E884207D1502080F31188BFF34F8F4B
:10307000BFF36F8FFEE72C4908780190FF2008709E
:1030800008788DF800009DF800009DF8002000F001
:10309000F000904207D0502080F31188BFF34F8F8B
:1030A000BFF36F8FFEE79DF80000204C00F050004A
:1030B00020700720A06005E09DF8002052008DF8E8
:1030C0000020401E9DF800201206F5D4A0600328C1
:1030D00007D0502080F31188BFF34F8FBFF36F8F5D
:1030E000FEE74FF44070A060019808700C48203053
:1030F000016841F470010160016841F070410160B4
:10310000FFF7FAFE00206060FDF7D8F80848016874
:1031100041F040410160FDF7BDF800201CBD0000FA
:1031200000ED00E071C20F4100E400E084010020E6
:1031300034EF00E02DE9FF5F8346DDE90E87994615
:1031400016468A469000FFF79DFD05001CD05420CE
:10315000FFF798FD040014D00020256384F8510087
:10316000CDE90240CDE900874B46324651465846EC
:10317000FFF7F2FC2046FFF717FC012004B0BDE882
:10318000F09F2846FFF786FE4FF0FF30F6E7F0B5D8
:1031900085B0DDE90B640A9DA6B1DCB15427009728
:1031A0002663022684F85160002604AFCDE902466A
:1031B000CDE90057FFF7D0FC2046FFF7F5FB049858
:1031C00005B0F0BD502080F31188BFF34F8FBFF3DF
:1031D0006F8FFEE7502080F31188BFF34F8FBFF34E
:1031E0006F8FFEE72DE9F0412F4C0026206B28B1B0
:1031F000A069401CA0613046BDE8F081E5686D1C07
:10320000E56013D1606B006838B1502080F31188FD
:10321000BFF34F8FBFF36F8FFEE7606BA16B6163EE
:10322000A063206A401C2062FFF708FDA06ADFF857
:103230007C80854209D3606B0068A0B1606BC06878
:10324000C7687868854211D2A0622068C06A00EB26
:10325000800158F82100012800D90126E0690028E2
:10326000C9D00126C7E74FF0FF30EDE7381DFFF763
:103270008DFDB86A18B107F11800FFF787FDF96AEC
:103280000120226988401043206101EB810108EB95
:103290008100391DFFF7BEFDF86A2168C96A8842BE
:1032A000C9D30126C7E70000280100202C06002012
:1032B0002DE9F0472C4D00242746286B38B1FFF745
:1032C000B5FD286B401E2863286B40B146E05020B6
:1032D00080F31188BFF34F8FBFF36F8FFEE7A968AC
:1032E000224E0120D1B3A6F1B40980463068E8B17E
:1032F000F068C46804F11800FFF748FD201DFFF7CF
:1033000045FDE06A2A6908FA00F11143296100EBE2
:10331000800109EB8100211DFFF77CFDE06A29682F
:10332000C96A8842E2D3C5F81C80DFE70CB1FFF719
:1033300085FCAC6944B14646FFF754FF00B1EE612D
:10334000641EF9D10020A861E86938B10849012755
:1033500038070860BFF34F8FBFF36F8FFFF786FD0D
:103360003846BDE8F087000028010020E006002074
:1033700004ED00E04FF04070E1EE100A70470000ED
:1033800004340008212100080000000000000000B3
:10339000000200000000000000000000EC33000804
:1033A0003D210008000000000000000000020000B5
:1033B0000000000000000000F83300085D22000853
:1033C00000000000000000000002000000000000FB
:1033D00000000000000000000000000001020304E3
:1033E0000607080900000000010203046D7954611A
:1033F000736B3032000000006D795461736B3033B1
:103400000000000064656661756C745461736B0044
:10341000303400080000002090010000D0010008B6
:103420008834000890010020F04700002C020008BA
:10343000012C5A010409161CA924091628E94C0973
:103440002A2829048210032924F413E5061B0861A5
:10345000041A67041AA5041AA9041A6304130F278F
:10346000140869261B0833081A7D081AC9081A951A
:10347000081A9D041AA9041AA1041AA5041A990489
:0834800001601AAA01410000DD
:040000050800019559
:00000001FF
